{
  "contractName": "Authenticity",
  "abi": [
    {
      "inputs": [
        {
          "internalType": "address",
          "name": "",
          "type": "address"
        }
      ],
      "name": "companies",
      "outputs": [
        {
          "internalType": "string",
          "name": "company_name",
          "type": "string"
        },
        {
          "internalType": "string",
          "name": "company_location",
          "type": "string"
        }
      ],
      "stateMutability": "view",
      "type": "function"
    },
    {
      "inputs": [
        {
          "internalType": "uint256",
          "name": "",
          "type": "uint256"
        }
      ],
      "name": "products",
      "outputs": [
        {
          "internalType": "string",
          "name": "name_of_product",
          "type": "string"
        },
        {
          "internalType": "string",
          "name": "manufacturing_date",
          "type": "string"
        },
        {
          "internalType": "string",
          "name": "expiry_date",
          "type": "string"
        },
        {
          "internalType": "uint256",
          "name": "serial_number",
          "type": "uint256"
        },
        {
          "internalType": "uint256",
          "name": "batch_no",
          "type": "uint256"
        },
        {
          "internalType": "string",
          "name": "ingredients",
          "type": "string"
        },
        {
          "internalType": "address",
          "name": "current_owner",
          "type": "address"
        }
      ],
      "stateMutability": "view",
      "type": "function"
    },
    {
      "inputs": [
        {
          "components": [
            {
              "internalType": "string",
              "name": "company_name",
              "type": "string"
            },
            {
              "internalType": "string",
              "name": "company_location",
              "type": "string"
            }
          ],
          "internalType": "struct Authenticity.CompanyInfo",
          "name": "_companyInfo",
          "type": "tuple"
        }
      ],
      "name": "fillInfo",
      "outputs": [],
      "stateMutability": "nonpayable",
      "type": "function"
    },
    {
      "inputs": [
        {
          "components": [
            {
              "internalType": "string",
              "name": "name_of_product",
              "type": "string"
            },
            {
              "internalType": "string",
              "name": "manufacturing_date",
              "type": "string"
            },
            {
              "internalType": "string",
              "name": "expiry_date",
              "type": "string"
            },
            {
              "internalType": "uint256",
              "name": "serial_number",
              "type": "uint256"
            },
            {
              "internalType": "uint256",
              "name": "batch_no",
              "type": "uint256"
            },
            {
              "internalType": "string",
              "name": "ingredients",
              "type": "string"
            }
          ],
          "internalType": "struct Authenticity.ProductInfoInput",
          "name": "product",
          "type": "tuple"
        }
      ],
      "name": "createProduct",
      "outputs": [],
      "stateMutability": "nonpayable",
      "type": "function"
    },
    {
      "inputs": [
        {
          "internalType": "address",
          "name": "newOwner",
          "type": "address"
        },
        {
          "internalType": "uint256",
          "name": "productId",
          "type": "uint256"
        }
      ],
      "name": "transferOwnership",
      "outputs": [],
      "stateMutability": "nonpayable",
      "type": "function"
    }
  ],
  "bytecode": "0x608060405234801561001057600080fd5b50610f41806100206000396000f3fe608060405234801561001057600080fd5b50600436106100575760003560e01c80630a2766801461005c578063355e6ce81461007857806335c8a3ab146100a95780637acc0b20146100c5578063e5ee3dcd146100fb575b600080fd5b6100766004803603810190610071919061089c565b610117565b005b610092600480360381019061008d91906108dc565b610214565b6040516100a09291906109a2565b60405180910390f35b6100c360048036038101906100be9190610c28565b610348565b005b6100df60048036038101906100da9190610c71565b61042a565b6040516100f29796959493929190610cbc565b60405180910390f35b61011560048036038101906101109190610dcf565b6106ac565b005b6001600082815260200190815260200160002060060160009054906101000a900473ffffffffffffffffffffffffffffffffffffffff1673ffffffffffffffffffffffffffffffffffffffff163373ffffffffffffffffffffffffffffffffffffffff16146101bb576040517f08c379a00000000000000000000000000000000000000000000000000000000081526004016101b290610e8a565b60405180910390fd5b816001600083815260200190815260200160002060060160006101000a81548173ffffffffffffffffffffffffffffffffffffffff021916908373ffffffffffffffffffffffffffffffffffffffff1602179055505050565b600260205280600052604060002060009150905080600001805461023790610ed9565b80601f016020809104026020016040519081016040528092919081815260200182805461026390610ed9565b80156102b05780601f10610285576101008083540402835291602001916102b0565b820191906000526020600020905b81548152906001019060200180831161029357829003601f168201915b5050505050908060010180546102c590610ed9565b80601f01602080910402602001604051908101604052809291908181526020018280546102f190610ed9565b801561033e5780601f106103135761010080835404028352916020019161033e565b820191906000526020600020905b81548152906001019060200180831161032157829003601f168201915b5050505050905082565b610352600061072d565b6000600160006103626000610743565b81526020019081526020016000209050816020015181600101908051906020019061038e929190610751565b5081604001518160020190805190602001906103ab929190610751565b5081606001518160030181905550816080015181600401819055508160a001518160050190805190602001906103e2929190610751565b50338160060160006101000a81548173ffffffffffffffffffffffffffffffffffffffff021916908373ffffffffffffffffffffffffffffffffffffffff1602179055505050565b600160205280600052604060002060009150905080600001805461044d90610ed9565b80601f016020809104026020016040519081016040528092919081815260200182805461047990610ed9565b80156104c65780601f1061049b576101008083540402835291602001916104c6565b820191906000526020600020905b8154815290600101906020018083116104a957829003601f168201915b5050505050908060010180546104db90610ed9565b80601f016020809104026020016040519081016040528092919081815260200182805461050790610ed9565b80156105545780601f1061052957610100808354040283529160200191610554565b820191906000526020600020905b81548152906001019060200180831161053757829003601f168201915b50505050509080600201805461056990610ed9565b80601f016020809104026020016040519081016040528092919081815260200182805461059590610ed9565b80156105e25780601f106105b7576101008083540402835291602001916105e2565b820191906000526020600020905b8154815290600101906020018083116105c557829003601f168201915b50505050509080600301549080600401549080600501805461060390610ed9565b80601f016020809104026020016040519081016040528092919081815260200182805461062f90610ed9565b801561067c5780601f106106515761010080835404028352916020019161067c565b820191906000526020600020905b81548152906001019060200180831161065f57829003601f168201915b5050505050908060060160009054906101000a900473ffffffffffffffffffffffffffffffffffffffff16905087565b6000600260003373ffffffffffffffffffffffffffffffffffffffff1673ffffffffffffffffffffffffffffffffffffffff1681526020019081526020016000209050816000015181600001908051906020019061070b929190610751565b508160200151816001019080519060200190610728929190610751565b505050565b6001816000016000828254019250508190555050565b600081600001549050919050565b82805461075d90610ed9565b90600052602060002090601f01602090048101928261077f57600085556107c6565b82601f1061079857805160ff19168380011785556107c6565b828001600101855582156107c6579182015b828111156107c55782518255916020019190600101906107aa565b5b5090506107d391906107d7565b5090565b5b808211156107f05760008160009055506001016107d8565b5090565b6000604051905090565b600080fd5b600080fd5b600073ffffffffffffffffffffffffffffffffffffffff82169050919050565b600061083382610808565b9050919050565b61084381610828565b811461084e57600080fd5b50565b6000813590506108608161083a565b92915050565b6000819050919050565b61087981610866565b811461088457600080fd5b50565b60008135905061089681610870565b92915050565b600080604083850312156108b3576108b26107fe565b5b60006108c185828601610851565b92505060206108d285828601610887565b9150509250929050565b6000602082840312156108f2576108f16107fe565b5b600061090084828501610851565b91505092915050565b600081519050919050565b600082825260208201905092915050565b60005b83811015610943578082015181840152602081019050610928565b83811115610952576000848401525b50505050565b6000601f19601f8301169050919050565b600061097482610909565b61097e8185610914565b935061098e818560208601610925565b61099781610958565b840191505092915050565b600060408201905081810360008301526109bc8185610969565b905081810360208301526109d08184610969565b90509392505050565b600080fd5b7f4e487b7100000000000000000000000000000000000000000000000000000000600052604160045260246000fd5b610a1682610958565b810181811067ffffffffffffffff82111715610a3557610a346109de565b5b80604052505050565b6000610a486107f4565b9050610a548282610a0d565b919050565b600080fd5b600080fd5b600080fd5b600067ffffffffffffffff821115610a8357610a826109de565b5b610a8c82610958565b9050602081019050919050565b82818337600083830152505050565b6000610abb610ab684610a68565b610a3e565b905082815260208101848484011115610ad757610ad6610a63565b5b610ae2848285610a99565b509392505050565b600082601f830112610aff57610afe610a5e565b5b8135610b0f848260208601610aa8565b91505092915050565b600060c08284031215610b2e57610b2d6109d9565b5b610b3860c0610a3e565b9050600082013567ffffffffffffffff811115610b5857610b57610a59565b5b610b6484828501610aea565b600083015250602082013567ffffffffffffffff811115610b8857610b87610a59565b5b610b9484828501610aea565b602083015250604082013567ffffffffffffffff811115610bb857610bb7610a59565b5b610bc484828501610aea565b6040830152506060610bd884828501610887565b6060830152506080610bec84828501610887565b60808301525060a082013567ffffffffffffffff811115610c1057610c0f610a59565b5b610c1c84828501610aea565b60a08301525092915050565b600060208284031215610c3e57610c3d6107fe565b5b600082013567ffffffffffffffff811115610c5c57610c5b610803565b5b610c6884828501610b18565b91505092915050565b600060208284031215610c8757610c866107fe565b5b6000610c9584828501610887565b91505092915050565b610ca781610866565b82525050565b610cb681610828565b82525050565b600060e0820190508181036000830152610cd6818a610969565b90508181036020830152610cea8189610969565b90508181036040830152610cfe8188610969565b9050610d0d6060830187610c9e565b610d1a6080830186610c9e565b81810360a0830152610d2c8185610969565b9050610d3b60c0830184610cad565b98975050505050505050565b600060408284031215610d5d57610d5c6109d9565b5b610d676040610a3e565b9050600082013567ffffffffffffffff811115610d8757610d86610a59565b5b610d9384828501610aea565b600083015250602082013567ffffffffffffffff811115610db757610db6610a59565b5b610dc384828501610aea565b60208301525092915050565b600060208284031215610de557610de46107fe565b5b600082013567ffffffffffffffff811115610e0357610e02610803565b5b610e0f84828501610d47565b91505092915050565b7f4f6e6c7920746865206f776e65722063616e206163636573732074686973206660008201527f756e6374696f6e00000000000000000000000000000000000000000000000000602082015250565b6000610e74602783610914565b9150610e7f82610e18565b604082019050919050565b60006020820190508181036000830152610ea381610e67565b9050919050565b7f4e487b7100000000000000000000000000000000000000000000000000000000600052602260045260246000fd5b60006002820490506001821680610ef157607f821691505b60208210811415610f0557610f04610eaa565b5b5091905056fea2646970667358221220c22583af95f174b7a7909f70ac26c9eb36872f7eb0346cdf929b00f721f3c36c64736f6c634300080a0033",
  "immutableReferences": {},
  "source": "// SPDX-License-Identifier: MIT\npragma solidity >=0.4.22 <0.9.0;\nimport \"@openzeppelin/contracts/utils/Counters.sol\";\n\ncontract Authenticity{       \n    using Counters for Counters.Counter;\n    \n    Counters.Counter private _productId;\n\n    struct CompanyInfo{\n        string company_name;\n        string company_location;\n    }\n\n    struct ProductInfo{\n        string name_of_product;\n        string manufacturing_date;\n        string expiry_date; \n        uint serial_number;\n        uint batch_no;\n        string ingredients;\n        address current_owner;\n    \n\n    }\n\n    struct ProductInfoInput{\n        string name_of_product;\n        string manufacturing_date;\n        string expiry_date; \n        uint serial_number;\n        uint batch_no;\n        string ingredients;\n    }\n\n    mapping(uint=> ProductInfo) public products;\n    mapping(address=> CompanyInfo) public  companies;\n\n    function fillInfo(CompanyInfo memory _companyInfo) public {\n        CompanyInfo storage newCompanyInfo = companies[msg.sender];\n        newCompanyInfo.company_name = _companyInfo.company_name;\n        newCompanyInfo.company_location = _companyInfo.company_location;\n    }\n\n    function createProduct (ProductInfoInput memory product) public {\n       _productId.increment();\n        // Adding the poll\n        ProductInfo storage newProductInfo = products[_productId.current()];\n        newProductInfo.manufacturing_date = product.manufacturing_date;\n        newProductInfo.expiry_date = product.expiry_date;\n        newProductInfo.serial_number = product.serial_number;\n        newProductInfo.batch_no = product.batch_no;\n        newProductInfo.ingredients = product.ingredients;\n        newProductInfo.current_owner = msg.sender;\n    }\n\n    function transferOwnership(address newOwner, uint productId) public{\n        \n        require(msg.sender==products[productId].current_owner, \"Only the owner can access this function\");\n        products[productId].current_owner = newOwner;\n}\n}",
  "sourcePath": "C:\\Users\\RUBIES\\Documents\\My_projects\\Blockchain\\My project\\contracts\\Authenticity.sol",
  "compiler": {
    "name": "solc",
    "version": "0.8.10+commit.fc410830.Emscripten.clang"
  },
  "schemaVersion": "3.4.4",
  "updatedAt": "2022-06-23T16:11:39.234Z",
  "devdoc": {
    "kind": "dev",
    "methods": {},
    "version": 1
  },
  "userdoc": {
    "kind": "user",
    "methods": {},
    "version": 1
  }
}