{
  "contractName": "Authenticity",
  "abi": [
    {
      "anonymous": false,
      "inputs": [
        {
          "indexed": true,
          "internalType": "address",
          "name": "_from",
          "type": "address"
        },
        {
          "indexed": true,
          "internalType": "address",
          "name": "_to",
          "type": "address"
        },
        {
          "indexed": true,
          "internalType": "uint256",
          "name": "_productId",
          "type": "uint256"
        }
      ],
      "name": "OwnershipTransfer",
      "type": "event"
    },
    {
      "anonymous": false,
      "inputs": [
        {
          "indexed": true,
          "internalType": "address",
          "name": "_creator",
          "type": "address"
        },
        {
          "indexed": true,
          "internalType": "uint256",
          "name": "_productId",
          "type": "uint256"
        }
      ],
      "name": "ProductCreate",
      "type": "event"
    },
    {
      "inputs": [
        {
          "internalType": "address",
          "name": "",
          "type": "address"
        }
      ],
      "name": "companies",
      "outputs": [
        {
          "internalType": "string",
          "name": "companyName",
          "type": "string"
        },
        {
          "internalType": "string",
          "name": "companyLocation",
          "type": "string"
        }
      ],
      "stateMutability": "view",
      "type": "function",
      "constant": true
    },
    {
      "inputs": [
        {
          "internalType": "uint256",
          "name": "",
          "type": "uint256"
        }
      ],
      "name": "products",
      "outputs": [
        {
          "internalType": "string",
          "name": "nameOfProduct",
          "type": "string"
        },
        {
          "internalType": "string",
          "name": "manufacturingDate",
          "type": "string"
        },
        {
          "internalType": "string",
          "name": "expiryDate",
          "type": "string"
        },
        {
          "internalType": "uint256",
          "name": "serialNumber",
          "type": "uint256"
        },
        {
          "internalType": "uint256",
          "name": "batchNo",
          "type": "uint256"
        },
        {
          "internalType": "string",
          "name": "ingredients",
          "type": "string"
        },
        {
          "internalType": "address",
          "name": "currentOwner",
          "type": "address"
        }
      ],
      "stateMutability": "view",
      "type": "function",
      "constant": true
    },
    {
      "inputs": [
        {
          "components": [
            {
              "internalType": "string",
              "name": "companyName",
              "type": "string"
            },
            {
              "internalType": "string",
              "name": "companyLocation",
              "type": "string"
            }
          ],
          "internalType": "struct Authenticity.CompanyInfo",
          "name": "_companyInfo",
          "type": "tuple"
        }
      ],
      "name": "fillInfo",
      "outputs": [],
      "stateMutability": "nonpayable",
      "type": "function"
    },
    {
      "inputs": [
        {
          "components": [
            {
              "internalType": "string",
              "name": "nameOfProduct",
              "type": "string"
            },
            {
              "internalType": "string",
              "name": "manufacturingDate",
              "type": "string"
            },
            {
              "internalType": "string",
              "name": "expiryDate",
              "type": "string"
            },
            {
              "internalType": "uint256",
              "name": "serialNumber",
              "type": "uint256"
            },
            {
              "internalType": "uint256",
              "name": "batchNo",
              "type": "uint256"
            },
            {
              "internalType": "string",
              "name": "ingredients",
              "type": "string"
            }
          ],
          "internalType": "struct Authenticity.ProductInfoInput",
          "name": "product",
          "type": "tuple"
        }
      ],
      "name": "createProduct",
      "outputs": [
        {
          "internalType": "uint256",
          "name": "count",
          "type": "uint256"
        }
      ],
      "stateMutability": "nonpayable",
      "type": "function"
    },
    {
      "inputs": [
        {
          "internalType": "uint256",
          "name": "_productId",
          "type": "uint256"
        }
      ],
      "name": "getProduct",
      "outputs": [
        {
          "components": [
            {
              "internalType": "string",
              "name": "nameOfProduct",
              "type": "string"
            },
            {
              "internalType": "string",
              "name": "manufacturingDate",
              "type": "string"
            },
            {
              "internalType": "string",
              "name": "expiryDate",
              "type": "string"
            },
            {
              "internalType": "uint256",
              "name": "serialNumber",
              "type": "uint256"
            },
            {
              "internalType": "uint256",
              "name": "batchNo",
              "type": "uint256"
            },
            {
              "internalType": "string",
              "name": "ingredients",
              "type": "string"
            },
            {
              "internalType": "address",
              "name": "currentOwner",
              "type": "address"
            }
          ],
          "internalType": "struct Authenticity.ProductInfo",
          "name": "_product",
          "type": "tuple"
        }
      ],
      "stateMutability": "view",
      "type": "function",
      "constant": true
    },
    {
      "inputs": [
        {
          "internalType": "address",
          "name": "_companyId",
          "type": "address"
        }
      ],
      "name": "getCompanyInfo",
      "outputs": [
        {
          "components": [
            {
              "internalType": "string",
              "name": "companyName",
              "type": "string"
            },
            {
              "internalType": "string",
              "name": "companyLocation",
              "type": "string"
            }
          ],
          "internalType": "struct Authenticity.CompanyInfo",
          "name": "_company",
          "type": "tuple"
        }
      ],
      "stateMutability": "view",
      "type": "function",
      "constant": true
    },
    {
      "inputs": [
        {
          "internalType": "address",
          "name": "newOwner",
          "type": "address"
        },
        {
          "internalType": "uint256",
          "name": "productId",
          "type": "uint256"
        }
      ],
      "name": "transferOwnership",
      "outputs": [],
      "stateMutability": "nonpayable",
      "type": "function"
    },
    {
      "inputs": [],
      "name": "productCount",
      "outputs": [
        {
          "internalType": "uint256",
          "name": "count",
          "type": "uint256"
        }
      ],
      "stateMutability": "view",
      "type": "function",
      "constant": true
    }
  ],
  "bytecode": "0x608060405234801561001057600080fd5b50611778806100206000396000f3fe608060405234801561001057600080fd5b50600436106100885760003560e01c80637acc0b201161005b5780637acc0b201461013a578063b9db15b414610170578063e0f6ef87146101a0578063e5ee3dcd146101be57610088565b80630a2766801461008d578063355e6ce8146100a957806335c8a3ab146100da57806342e12c831461010a575b600080fd5b6100a760048036038101906100a291906110ce565b6101da565b005b6100c360048036038101906100be91906110a1565b61033b565b6040516100d1929190611393565b60405180910390f35b6100f460048036038101906100ef9190611157565b61046f565b60405161010191906114b9565b60405180910390f35b610124600480360381019061011f91906110a1565b6105cb565b6040516101319190611475565b60405180910390f35b610154600480360381019061014f91906111a0565b610748565b60405161016797969594939291906113ca565b60405180910390f35b61018a600480360381019061018591906111a0565b6109ca565b6040516101979190611497565b60405180910390f35b6101a8610ca9565b6040516101b591906114b9565b60405180910390f35b6101d860048036038101906101d3919061110e565b610cba565b005b6001600082815260200190815260200160002060060160009054906101000a900473ffffffffffffffffffffffffffffffffffffffff1673ffffffffffffffffffffffffffffffffffffffff163373ffffffffffffffffffffffffffffffffffffffff161461027e576040517f08c379a000000000000000000000000000000000000000000000000000000000815260040161027590611455565b60405180910390fd5b816001600083815260200190815260200160002060060160006101000a81548173ffffffffffffffffffffffffffffffffffffffff021916908373ffffffffffffffffffffffffffffffffffffffff1602179055506102dd6000610d3b565b8273ffffffffffffffffffffffffffffffffffffffff163373ffffffffffffffffffffffffffffffffffffffff167f4b561bec749abb701e51772ccc461627db033e876cb892e2c86997426175666060405160405180910390a45050565b600260205280600052604060002060009150905080600001805461035e906115d5565b80601f016020809104026020016040519081016040528092919081815260200182805461038a906115d5565b80156103d75780601f106103ac576101008083540402835291602001916103d7565b820191906000526020600020905b8154815290600101906020018083116103ba57829003601f168201915b5050505050908060010180546103ec906115d5565b80601f0160208091040260200160405190810160405280929190818152602001828054610418906115d5565b80156104655780601f1061043a57610100808354040283529160200191610465565b820191906000526020600020905b81548152906001019060200180831161044857829003601f168201915b5050505050905082565b600061047b6000610d49565b60006001600061048b6000610d3b565b8152602001908152602001600020905082600001518160000190805190602001906104b7929190610d5f565b5082602001518160010190805190602001906104d4929190610d5f565b5082604001518160020190805190602001906104f1929190610d5f565b5082606001518160030181905550826080015181600401819055508260a00151816005019080519060200190610528929190610d5f565b50338160060160006101000a81548173ffffffffffffffffffffffffffffffffffffffff021916908373ffffffffffffffffffffffffffffffffffffffff1602179055506105766000610d3b565b3373ffffffffffffffffffffffffffffffffffffffff167fc22068232414d5fb5b2854ad84bdd463712aed0387f18ab07c4a9cf10a741abc60405160405180910390a36105c36000610d3b565b915050919050565b6105d3610de5565b600260008373ffffffffffffffffffffffffffffffffffffffff1673ffffffffffffffffffffffffffffffffffffffff16815260200190815260200160002060405180604001604052908160008201805461062d906115d5565b80601f0160208091040260200160405190810160405280929190818152602001828054610659906115d5565b80156106a65780601f1061067b576101008083540402835291602001916106a6565b820191906000526020600020905b81548152906001019060200180831161068957829003601f168201915b505050505081526020016001820180546106bf906115d5565b80601f01602080910402602001604051908101604052809291908181526020018280546106eb906115d5565b80156107385780601f1061070d57610100808354040283529160200191610738565b820191906000526020600020905b81548152906001019060200180831161071b57829003601f168201915b5050505050815250509050919050565b600160205280600052604060002060009150905080600001805461076b906115d5565b80601f0160208091040260200160405190810160405280929190818152602001828054610797906115d5565b80156107e45780601f106107b9576101008083540402835291602001916107e4565b820191906000526020600020905b8154815290600101906020018083116107c757829003601f168201915b5050505050908060010180546107f9906115d5565b80601f0160208091040260200160405190810160405280929190818152602001828054610825906115d5565b80156108725780601f1061084757610100808354040283529160200191610872565b820191906000526020600020905b81548152906001019060200180831161085557829003601f168201915b505050505090806002018054610887906115d5565b80601f01602080910402602001604051908101604052809291908181526020018280546108b3906115d5565b80156109005780601f106108d557610100808354040283529160200191610900565b820191906000526020600020905b8154815290600101906020018083116108e357829003601f168201915b505050505090806003015490806004015490806005018054610921906115d5565b80601f016020809104026020016040519081016040528092919081815260200182805461094d906115d5565b801561099a5780601f1061096f5761010080835404028352916020019161099a565b820191906000526020600020905b81548152906001019060200180831161097d57829003601f168201915b5050505050908060060160009054906101000a900473ffffffffffffffffffffffffffffffffffffffff16905087565b6109d2610dff565b600160008381526020019081526020016000206040518060e0016040529081600082018054610a00906115d5565b80601f0160208091040260200160405190810160405280929190818152602001828054610a2c906115d5565b8015610a795780601f10610a4e57610100808354040283529160200191610a79565b820191906000526020600020905b815481529060010190602001808311610a5c57829003601f168201915b50505050508152602001600182018054610a92906115d5565b80601f0160208091040260200160405190810160405280929190818152602001828054610abe906115d5565b8015610b0b5780601f10610ae057610100808354040283529160200191610b0b565b820191906000526020600020905b815481529060010190602001808311610aee57829003601f168201915b50505050508152602001600282018054610b24906115d5565b80601f0160208091040260200160405190810160405280929190818152602001828054610b50906115d5565b8015610b9d5780601f10610b7257610100808354040283529160200191610b9d565b820191906000526020600020905b815481529060010190602001808311610b8057829003601f168201915b505050505081526020016003820154815260200160048201548152602001600582018054610bca906115d5565b80601f0160208091040260200160405190810160405280929190818152602001828054610bf6906115d5565b8015610c435780601f10610c1857610100808354040283529160200191610c43565b820191906000526020600020905b815481529060010190602001808311610c2657829003601f168201915b505050505081526020016006820160009054906101000a900473ffffffffffffffffffffffffffffffffffffffff1673ffffffffffffffffffffffffffffffffffffffff1673ffffffffffffffffffffffffffffffffffffffff16815250509050919050565b6000610cb56000610d3b565b905090565b6000600260003373ffffffffffffffffffffffffffffffffffffffff1673ffffffffffffffffffffffffffffffffffffffff16815260200190815260200160002090508160000151816000019080519060200190610d19929190610d5f565b508160200151816001019080519060200190610d36929190610d5f565b505050565b600081600001549050919050565b6001816000016000828254019250508190555050565b828054610d6b906115d5565b90600052602060002090601f016020900481019282610d8d5760008555610dd4565b82601f10610da657805160ff1916838001178555610dd4565b82800160010185558215610dd4579182015b82811115610dd3578251825591602001919060010190610db8565b5b509050610de19190610e52565b5090565b604051806040016040528060608152602001606081525090565b6040518060e00160405280606081526020016060815260200160608152602001600081526020016000815260200160608152602001600073ffffffffffffffffffffffffffffffffffffffff1681525090565b5b80821115610e6b576000816000905550600101610e53565b5090565b6000610e82610e7d846114f9565b6114d4565b905082815260208101848484011115610e9e57610e9d6116a5565b5b610ea9848285611593565b509392505050565b600081359050610ec081611714565b92915050565b600082601f830112610edb57610eda611696565b5b8135610eeb848260208601610e6f565b91505092915050565b600060408284031215610f0a57610f0961169b565b5b610f1460406114d4565b9050600082013567ffffffffffffffff811115610f3457610f336116a0565b5b610f4084828501610ec6565b600083015250602082013567ffffffffffffffff811115610f6457610f636116a0565b5b610f7084828501610ec6565b60208301525092915050565b600060c08284031215610f9257610f9161169b565b5b610f9c60c06114d4565b9050600082013567ffffffffffffffff811115610fbc57610fbb6116a0565b5b610fc884828501610ec6565b600083015250602082013567ffffffffffffffff811115610fec57610feb6116a0565b5b610ff884828501610ec6565b602083015250604082013567ffffffffffffffff81111561101c5761101b6116a0565b5b61102884828501610ec6565b604083015250606061103c8482850161108c565b60608301525060806110508482850161108c565b60808301525060a082013567ffffffffffffffff811115611074576110736116a0565b5b61108084828501610ec6565b60a08301525092915050565b60008135905061109b8161172b565b92915050565b6000602082840312156110b7576110b66116af565b5b60006110c584828501610eb1565b91505092915050565b600080604083850312156110e5576110e46116af565b5b60006110f385828601610eb1565b92505060206111048582860161108c565b9150509250929050565b600060208284031215611124576111236116af565b5b600082013567ffffffffffffffff811115611142576111416116aa565b5b61114e84828501610ef4565b91505092915050565b60006020828403121561116d5761116c6116af565b5b600082013567ffffffffffffffff81111561118b5761118a6116aa565b5b61119784828501610f7c565b91505092915050565b6000602082840312156111b6576111b56116af565b5b60006111c48482850161108c565b91505092915050565b6111d681611557565b82525050565b6111e581611557565b82525050565b60006111f68261152a565b6112008185611535565b93506112108185602086016115a2565b611219816116b4565b840191505092915050565b600061122f8261152a565b6112398185611546565b93506112498185602086016115a2565b611252816116b4565b840191505092915050565b600061126a602783611546565b9150611275826116c5565b604082019050919050565b6000604083016000830151848203600086015261129d82826111eb565b915050602083015184820360208601526112b782826111eb565b9150508091505092915050565b600060e08301600083015184820360008601526112e182826111eb565b915050602083015184820360208601526112fb82826111eb565b9150506040830151848203604086015261131582826111eb565b915050606083015161132a6060860182611375565b50608083015161133d6080860182611375565b5060a083015184820360a086015261135582826111eb565b91505060c083015161136a60c08601826111cd565b508091505092915050565b61137e81611589565b82525050565b61138d81611589565b82525050565b600060408201905081810360008301526113ad8185611224565b905081810360208301526113c18184611224565b90509392505050565b600060e08201905081810360008301526113e4818a611224565b905081810360208301526113f88189611224565b9050818103604083015261140c8188611224565b905061141b6060830187611384565b6114286080830186611384565b81810360a083015261143a8185611224565b905061144960c08301846111dc565b98975050505050505050565b6000602082019050818103600083015261146e8161125d565b9050919050565b6000602082019050818103600083015261148f8184611280565b905092915050565b600060208201905081810360008301526114b181846112c4565b905092915050565b60006020820190506114ce6000830184611384565b92915050565b60006114de6114ef565b90506114ea8282611607565b919050565b6000604051905090565b600067ffffffffffffffff82111561151457611513611667565b5b61151d826116b4565b9050602081019050919050565b600081519050919050565b600082825260208201905092915050565b600082825260208201905092915050565b600061156282611569565b9050919050565b600073ffffffffffffffffffffffffffffffffffffffff82169050919050565b6000819050919050565b82818337600083830152505050565b60005b838110156115c05780820151818401526020810190506115a5565b838111156115cf576000848401525b50505050565b600060028204905060018216806115ed57607f821691505b6020821081141561160157611600611638565b5b50919050565b611610826116b4565b810181811067ffffffffffffffff8211171561162f5761162e611667565b5b80604052505050565b7f4e487b7100000000000000000000000000000000000000000000000000000000600052602260045260246000fd5b7f4e487b7100000000000000000000000000000000000000000000000000000000600052604160045260246000fd5b600080fd5b600080fd5b600080fd5b600080fd5b600080fd5b600080fd5b6000601f19601f8301169050919050565b7f4f6e6c7920746865206f776e65722063616e206163636573732074686973206660008201527f756e6374696f6e00000000000000000000000000000000000000000000000000602082015250565b61171d81611557565b811461172857600080fd5b50565b61173481611589565b811461173f57600080fd5b5056fea26469706673582212200765485a1baf6df99e5a6fb4101f837053bdb5309fc8ddb85fcd36c04717c29d64736f6c63430008070033",
  "immutableReferences": {},
  "source": "// SPDX-License-Identifier: MIT\npragma solidity ^0.8.0;\n\nimport \"@openzeppelin/contracts/utils/Counters.sol\";\n\ncontract Authenticity {\n    using Counters for Counters.Counter;\n\n    Counters.Counter private _productIds;\n\n    struct CompanyInfo {\n        string companyName;\n        string companyLocation;\n    }\n\n    struct ProductInfo {\n        string nameOfProduct;\n        string manufacturingDate;\n        string expiryDate;\n        uint256 serialNumber;\n        uint256 batchNo;\n        string ingredients;\n        address currentOwner;\n    }\n\n    struct ProductInfoInput {\n        string nameOfProduct;\n        string manufacturingDate;\n        string expiryDate;\n        uint256 serialNumber;\n        uint256 batchNo;\n        string ingredients;\n    }\n\n    mapping(uint256 => ProductInfo) public products;\n    mapping(address => CompanyInfo) public companies;\n\n    //Declare an Event\n    event ProductCreate(address indexed _creator, uint256 indexed _productId);\n    event OwnershipTransfer(address indexed _from, address indexed _to, uint256 indexed _productId);\n\n\n    function fillInfo(CompanyInfo memory _companyInfo) public {\n        CompanyInfo storage newCompanyInfo = companies[msg.sender];\n        newCompanyInfo.companyName = _companyInfo.companyName;\n        newCompanyInfo.companyLocation = _companyInfo.companyLocation;\n    }\n\n    function createProduct(ProductInfoInput memory product) public returns (uint256 count){\n        _productIds.increment();\n\n        // Adding the product\n        ProductInfo storage newProductInfo = products[_productIds.current()];\n        newProductInfo.nameOfProduct = product.nameOfProduct;\n        newProductInfo.manufacturingDate = product.manufacturingDate;\n        newProductInfo.expiryDate = product.expiryDate;\n        newProductInfo.serialNumber = product.serialNumber;\n        newProductInfo.batchNo = product.batchNo;\n        newProductInfo.ingredients = product.ingredients;\n        newProductInfo.currentOwner = msg.sender;\n\n        // Emit Info Fill\n        emit ProductCreate(msg.sender, _productIds.current());\n\n        return _productIds.current();\n    }\n\n    function getProduct(uint256 _productId) public view returns (ProductInfo memory _product){\n        return products[_productId];\n    }\n\n    function getCompanyInfo(address _companyId) public view returns (CompanyInfo memory _company){\n        return companies[_companyId];\n    }\n\n    function transferOwnership(address newOwner, uint256 productId) public {\n        require(\n            msg.sender == products[productId].currentOwner,\n            \"Only the owner can access this function\"\n        );\n        products[productId].currentOwner = newOwner;\n        emit OwnershipTransfer(msg.sender, newOwner, _productIds.current());\n    }\n\n    function productCount() public view returns (uint256 count) {\n        return _productIds.current();\n    }\n}\n",
  "sourcePath": "/Users/jibola/Documents/projects/Authentication-Proj/contracts/Authenticity.sol",
  "compiler": {
    "name": "solc",
    "version": "0.8.7+commit.e28d00a7.Emscripten.clang"
  },
  "schemaVersion": "3.4.7",
  "updatedAt": "2022-06-29T06:32:03.166Z",
  "networkType": "ethereum",
  "devdoc": {
    "kind": "dev",
    "methods": {},
    "version": 1
  },
  "userdoc": {
    "kind": "user",
    "methods": {},
    "version": 1
  }
}